:020000040000FA
:100000000C9480000C94A8000C94A8000C94A800F8
:100010000C94A8000C94A8000C94A8000C94A800C0
:100020000C94A8000C94A8000C94A8000C94A800B0
:100030000C94A8000C94A8000C94A8000C94A800A0
:100040000C9429030C94A8000C94F7020C94D10290
:100050000C94A8000C94A8000C94A8000C94A80080
:100060000C94A8000C94A8004E414E494E49545996
:10007000494E46CDCCCC3D0AD7233C17B7D1387773
:10008000CC2B329595E6241FB14F0A000020410089
:1000900000C84200401C4620BCBE4CCA1B0E5AAED3
:1000A000C59D7400000000240027002A0000000005
:1000B00000250028002B0000000000230026002956
:1000C0000004040404040404040202020202020301
:1000D000030303030301020408102040800102040B
:1000E000081020010204081020000000080002018E
:1000F0000000030407000000000000000000D50617
:1001000011241FBECFEFD8E0DEBFCDBF22E0A8E2B2
:10011000B1E001C01D92A730B207E1F711E0A0E005
:10012000B1E0E8E6F6E102C005900D92A832B10711
:10013000D9F710E0C0E8D0E004C02197FE010E948A
:100140002C0BCF37D107C9F70E9473030C94320BE5
:100150000C940000AF92BF92CF92DF92EF92FF9289
:100160000F931F93CF93DF936C017B018B01040FDF
:10017000151FEB015E01AE18BF08C017D10759F07B
:100180006991D601ED91FC910190F081E02DC601BD
:100190000995892B79F7C501DF91CF911F910F91B7
:1001A000FF90EF90DF90CF90BF90AF900895FC014B
:1001B000538D448D252F30E0842F90E0821B930BCC
:1001C000541710F0CF96089501970895FC01918D72
:1001D000828D981761F0A28DAE0FBF2FB11D5D9675
:1001E0008C91928D9F5F9F73928F90E008958FEF17
:1001F0009FEF0895FC01918D828D981731F0828DCB
:10020000E80FF11D858D90E008958FEF9FEF089521
:10021000FC01918D228D892F90E0805C9F4F821B85
:1002200091098F739927089588E691E00E9408014B
:1002300021E0892B09F420E0822F0895FC01A48D90
:10024000A80FB92FB11DA35ABF4F2C91848D90E0F8
:1002500001968F739927848FA689B7892C93A089DB
:10026000B1898C91837080648C93938D848D981365
:1002700006C00288F389E02D80818F7D80830895F8
:10028000EF92FF920F931F93CF93DF93EC0181E0E6
:10029000888F9B8D8C8D98131AC0E889F98980818D
:1002A00085FF15C09FB7F894EE89FF896083E889C0
:1002B000F98980818370806480839FBF81E090E0B2
:1002C000DF91CF911F910F91FF90EF900895F62E3F
:1002D0000B8D10E00F5F1F4F0F731127E02E8C8DD9
:1002E0008E110CC00FB607FCFACFE889F98980811E
:1002F00085FFF5CFCE010E941E01F1CFEB8DEC0FF3
:10030000FD2FF11DE35AFF4FF0829FB7F8940B8F3A
:10031000EA89FB8980818062CFCFCF93DF93EC01A4
:10032000888D8823B9F0AA89BB89E889F9898C91DD
:1003300085FD03C0808186FD0DC00FB607FCF7CF99
:100340008C9185FFF2CF808185FFEDCFCE010E9499
:100350001E01E9CFDF91CF910895833081F028F419
:10036000813099F08230A9F008958730A9F0883063
:10037000C9F08430B1F4809180008F7D03C08091FA
:1003800080008F7780938000089584B58F7784BD37
:10039000089584B58F7DFBCF8091B0008F778093D7
:1003A000B00008958091B0008F7DF9CFCF93DF9397
:1003B000282F30E0F901E751FF4F8491F901EB520A
:1003C000FF4FD491F901EF53FF4FC491CC23A1F01B
:1003D00081110E94AD01EC2FF0E0EE0FFF1FE954F8
:1003E000FF4FA591B491EC91ED2381E090E009F4E9
:1003F00080E0DF91CF91089580E090E0FACF1F93E5
:10040000CF93DF93282F30E0F901E751FF4F84911C
:10041000F901EB52FF4FD491F901EF53FF4FC49113
:10042000CC23A9F0162F81110E94AD01EC2FF0E032
:10043000EE0FFF1FE355FF4FA591B4918FB7F894CE
:10044000EC91111108C0D095DE23DC938FBFDF91B2
:10045000CF911F910895DE2BF8CFCF93DF9390E0DB
:10046000FC01EB52FF4F24918F539F4FFC0184916D
:100470008823D1F090E0880F991FFC01ED55FF4FC4
:10048000A591B491FC01E355FF4FC591D491611141
:100490000EC09FB7F8948C91E22FE0958E238C9339
:1004A0002881E223E8839FBFDF91CF9108958FB722
:1004B000F894EC91E22BEC938FBFF6CFFC01019006
:1004C0000020E9F73197AF01481B590BBC0188E6C2
:1004D00091E00C94AA008F929F92AF92BF920F93DB
:1004E0001F93CF93DF93CDB7DEB7A1970FB6F894E4
:1004F000DEBF0FBECDBF19A2423008F44AE08E0124
:100500000F5D1F4F842E912CB12CA12CA5019401BD
:100510000E940A0BE62FB901CA01EA30F4F4E05D4B
:10052000D801EE938D01232B242B252B79F790E016
:1005300080E0109719F0CD010E945E02A1960FB6DF
:10054000F894DEBF0FBECDBFDF91CF911F910F9109
:10055000BF90AF909F908F900895E95CE1CFCF93CB
:10056000DF93EFE3F1E084E1DF011D928A95E9F783
:10057000EF0188E691E00E940801892B31F088E6BE
:1005800091E00E94E6008993F4CF81E080935301CB
:10059000DF91CF9108950E94140181110C94AF0254
:1005A00008951F920F920FB60F9211242F933F932D
:1005B0004F935F936F937F938F939F93AF93BF936B
:1005C000EF93FF9388E691E00E941E01FF91EF9167
:1005D000BF91AF919F918F917F916F915F914F915B
:1005E0003F912F910F900FBE0F901F9018951F9263
:1005F0000F920FB60F9211242F938F939F93EF9327
:10060000FF93E0917801F09179018081E0917E0182
:10061000F0917F0182FD1BC09081809181018F5FED
:100620008F7320918201821741F0E0918101F0E007
:10063000E859FE4F958F80938101FF91EF919F9133
:100640008F912F910F900FBE0F901F901895808162
:10065000F4CF1F920F920FB60F9211242F933F9356
:100660008F939F93AF93BF9380912D0190912E0113
:10067000A0912F01B091300130912C0123E0230F84
:100680002D3758F50196A11DB11D20932C018093A3
:100690002D0190932E01A0932F01B09330018091F2
:1006A000280190912901A0912A01B0912B01019676
:1006B000A11DB11D8093280190932901A0932A01C7
:1006C000B0932B01BF91AF919F918F913F912F914B
:1006D0000F900FBE0F901F90189526E8230F0296DB
:1006E000A11DB11DD2CF789484B5826084BD84B53C
:1006F000816084BD85B5826085BD85B5816085BD1D
:1007000080916E00816080936E00109281008091D4
:10071000810082608093810080918100816080935C
:100720008100809180008160809380008091B10081
:1007300084608093B1008091B00081608093B000AC
:1007400080917A00846080937A0080917A00826040
:1007500080937A0080917A00816080937A00809102
:100760007A00806880937A001092C100E09178014D
:10077000F091790182E08083E0917401F09175013C
:100780001082E0917601F091770180E180831092F0
:100790008001E0917C01F0917D0186E08083E09111
:1007A0007A01F0917B01808180618083E0917A0100
:1007B000F0917B01808188608083E0917A01F091E3
:1007C0007B01808180688083E0917A01F0917B01D8
:1007D00080818F7D808361E087E00E942D0261E04F
:1007E00088E00E942D0261E089E00E942D0261E014
:1007F0008AE00E942D0260E082E00E942D0260E00B
:1008000083E00E942D0260E08AE00E94FF0160E028
:1008100089E00E94FF018FE3E82E81E0F82E9AE044
:10082000C92ED12C29E0222E312C20E030E040E0EE
:100830005FE36091350170913601809137019091AD
:1008400038010E94D9082091390130913A01409134
:100850003B0150913C010E94EC092B013C012DEC25
:100860003CEC4CE45EE36091310170913201809187
:100870003301909134010E94D9089B01AC01C3015E
:10088000B2010E94EC099B01AC010E94EC092B0112
:100890003C0120E030E04FE753E40E94000B1816C3
:1008A00044F580E090E0AFE7B3E4809306019093D5
:1008B0000701A0930801B0930901609106017091AE
:1008C000070180910801909109010E94CA0A2B0139
:1008D0008B01C0910401D091050161E08C2F0E9431
:1008E0002D024114510401F560E08C2F0E94FF019C
:1008F00048C020E030E0A901C301B2010E947308A2
:1009000087FD09C0409206015092070160920801DC
:1009100070920901D2CF1092060110920701109235
:10092000080110920901C9CF0F3F110511F461E0D0
:10093000DCCFFE01FF27E751FF4FE491E33009F4DC
:10094000CAC048F4E130C9F0E23009F4BFC0003851
:1009500011056CF7C9CFE73009F4C7C0E83009F4D6
:10096000CCC0E430A1F78091800080628093800049
:1009700050928B0040928A0004C084B5806884BD88
:1009800047BC2FB7F89480912D0190912E01A09132
:100990002F01B09130012FBF8093640190936501C6
:1009A000A0936601B0936701809360019093610109
:1009B000A0936201B0936301809160019091610105
:1009C000A0916201B0916301409164015091650171
:1009D0006091660170916701841B950BA60BB70BA4
:1009E00084369105A105B10508F08FC082E00E9410
:1009F000D60181309105A1F420915E0130915F0113
:100A0000232B71F420915C0130915D012F5F3F4FEA
:100A100030935D0120935C0190935F0180935E01B0
:100A200082E00E94D601892B99F480915E01909119
:100A30005F01019769F480915C0190915D010196DD
:100A400090935D0180935C0110925F0110925E01B2
:100A500083E00E94D60181309105A1F420915A01D2
:100A600030915B01232B71F4209158013091590191
:100A70002F5F3F4F309359012093580190935B01B2
:100A800080935A0183E00E94D601892B99F48091CA
:100A90005A0190915B01019769F4809158019091FE
:100AA00059010196909359018093580110925B016E
:100AB00010925A012FB7F89480912D0190912E0138
:100AC000A0912F01B09130012FBF6ECF84B580620D
:100AD00084BD48BC56CF80918000806880938000A0
:100AE00050928900409288004CCF8091B00080687D
:100AF0008093B0004092B30044CF8091B0008062F8
:100B00008093B0004092B4003CCF60915C01709142
:100B10005D018091580190915901680F791F072E4E
:100B2000000C880B990B0E947A082AE939E945E103
:100B300053E40E94580A60935401709355018093C6
:100B400056019093570180915301882349F1E701A1
:100B500009900020E9F7C054D140D0933E01C093E2
:100B60003D01C25CDE4F888160E0803309F083C0C4
:100B70008AE00E94FF013092050120920401188250
:100B800070E060E08FE391E00E9402076093000153
:100B9000709301018093020190930301109253011D
:100BA000409054015090550160905601709057014B
:100BB000A3019201C301B2010E94050B882309F42D
:100BC00062C08CE191E00E945E0210925901109285
:100BD000580110925D0110925C0180903901909053
:100BE0003A01A0903B01B0903C012091540130911A
:100BF000550140915601509157016091000170914B
:100C0000010180910201909103010E94EB092B01E7
:100C10003C014092390150923A0160923B0170923E
:100C20003C01AC019B0160913501709136018091CE
:100C30003701909138010E94EC096093350170935F
:100C400036018093370190933801A5019401C301C7
:100C5000B2010E94EB0960933101709332018093DD
:100C60003301909334010E941401882309F4DDCDEF
:100C70000E94AF02DACD89E00E94FF01D092050107
:100C8000C09204017CCF53014201E894B7F82FEFE2
:100C90003FEF4FE75FE7C501B4010E94050B8111EB
:100CA0000DC02FEF3FEF4FE75FE7C501B4010E9492
:100CB000730818161CF480E291E085CF2FEF3FEF08
:100CC0004FE75FE4C301B2010E94000B18161CF449
:100CD00084E291E078CF2FEF3FEF4FE75FECC30165
:100CE000B2010E94730887FDF3CF20E030E0A90134
:100CF000C301B2010E94730887FF09C06DE288E654
:100D000091E00E94400177FA709477F870942AE09D
:100D100037ED43EA5BE3C301B2010E94EC094B01EA
:100D20005C010E94D10A2B013C010E9478089B01C2
:100D3000AC01C501B4010E94EB094B015C014AE022
:100D4000C301B2010E946B026EE288E691E00E944C
:100D5000400120E030E040E251E4C501B4010E94CE
:100D6000D9084B015C010E94D10A2B01712C612C26
:100D70004AE0C301B2010E946B02C301B2010E94AA
:100D800078089B01AC01C501B4010E94EB0920E089
:100D900030E040E251E40E94D9080E94D10A90E07C
:100DA00080E04AE00E946B0210CFE8E6F1E0138297
:100DB000128288EE93E0A0E0B0E084839583A6835E
:100DC000B7838EE091E09183808385EC90E09587F6
:100DD000848784EC90E09787868780EC90E0918B05
:100DE000808B81EC90E0938B828B82EC90E0958BF2
:100DF000848B86EC90E0978B868B118E128E138EEF
:100E0000148E0895B0E0A0E0E8E0F7E00C94AB09A0
:100E10005C017B016115710519F0DB018D939C93D9
:100E200085010F5F1F4FF501D0818D2F90E00E944B
:100E300052086C01892BB9F5DD32B9F50F5F1F4FF0
:100E4000D5011196DC91C1E05801F1E0AF1AB1086B
:100E500043E050E060E770E0C5010E945B08892B29
:100E600069F5680182E0C80ED11C45E050E06BE6F0
:100E700070E0C6010E945B08892B21F4680197E0AD
:100E8000C90ED11CE114F10419F0D701CD92DC9206
:100E900060E070E080E89FEFC111FFC060E070E0AB
:100EA00080E89FE7FAC05801BBCFDB3229F4850107
:100EB0000E5F1F4FF501D181C0E0C6CF43E050E087
:100EC00068E670E0C5010E945B08892BE9F0F80133
:100ED00010E000E020E030E0A9015F01B0ED8B2ED2
:100EE0008D0E89E08815C8F19C2E689491F88C2F9E
:100EF0008870C2FF16C0811102C00F5F1F4F31966C
:100F0000D501DC91C92DE9CFE114F10429F00E5F80
:100F10001F4FF7011183008360E070E080EC9FE7D2
:100F2000BCC0882311F001501109A5E0B0E00E9477
:100F30009A099B01AC01220F331F441F551F280D36
:100F4000311D411D511D283999E93907490799E19A
:100F50005907A8F2C6609C2ED2CFAEEF8A1206C007
:100F6000C3FD3CC09C2E689493F8C9CFDF7DD53477
:100F7000A9F580818D3239F4C061DF01129681813B
:100F800062E070E006C0DF018B32C1F3119661E0D0
:100F900070E080535D01A61AB70A8A30F8F4E0E8E1
:100FA000CE16ECE0DE065CF4B601660F771F660F26
:100FB000771FC60ED71ECC0CDD1CC80ED11C5D01E0
:100FC000FFEFAF1ABF0A8C9180538A30A8F1C4FF9B
:100FD00003C0D194C194D1080C0D1D1DC1FF09C0DF
:100FE000E114F10431F081E0A81AB108D701AD9203
:100FF000BC92CA01B9010E947808C370C33009F4D9
:1010000090584B015C0120E030E0A9010E94730878
:10101000882309F440C0CFE9D0E017FF05C011953F
:1010200001951109C7E8D0E06E01B8E1CB1AD108EB
:1010300080E2E82EF12C0FC0D501B1CFFE01259141
:101040003591459154910E191F09C501B4010E94B3
:10105000D9084B015C01D501C4010E151F0574F7B9
:101060002497F594E794CC16DD06A9F78A2F880F0C
:101070008B2F881F8F3F49F020E030E0A901C50188
:10108000B4010E947308811106C082E290E090933F
:10109000060280930502C501B401CDB7DEB7ECE0CE
:1010A0000C94C70991110C944609803219F08950AB
:1010B0008550C8F70895FB01DC014150504088F08D
:1010C0008D9181341CF08B350CF4805E6591613418
:1010D0001CF06B350CF4605E861B611171F3990B8B
:1010E0000895881BFCCF0E94B50808F481E008959C
:1010F000E89409C097FB3EF49095809570956195B2
:101100007F4F8F4F9F4F9923A9F0F92F96E9BB2767
:101110009395F695879577956795B795F111F8CFE3
:10112000FAF4BB0F11F460FF1BC06F5F7F4F8F4F4E
:101130009F4F16C0882311F096E911C0772321F044
:101140009EE8872F762F05C0662371F096E8862FDC
:1011500070E060E02AF09A95660F771F881FDAF733
:10116000880F9695879597F90895990F0008550F60
:10117000AA0BE0E8FEEF16161706E807F907C0F01D
:1011800012161306E407F50798F0621B730B840B25
:10119000950B39F40A2661F0232B242B252B21F4FF
:1011A00008950A2609F4A140A6958FEF811D811D9F
:1011B00008950E94EC080C9460090E94520938F0CE
:1011C0000E94590920F0952311F00C9449090C94C0
:1011D0004F0911240C9494090E94710970F3959F92
:1011E000C1F3950F50E0551F629FF001729FBB271E
:1011F000F00DB11D639FAA27F00DB11DAA1F649FBA
:101200006627B00DA11D661F829F2227B00DA11D6C
:10121000621F739FB00DA11D621F839FA00D611DF2
:10122000221F749F3327A00D611D231F849F600D13
:10123000211D822F762F6A2F11249F5750409AF03C
:10124000F1F088234AF0EE0FFF1FBB1F661F771FC8
:10125000881F91505040A9F79E3F510580F00C9493
:1012600049090C9494095F3FE4F3983ED4F38695C2
:1012700077956795B795F795E7959F5FC1F7FE2B33
:10128000880F911D9695879597F908959927882736
:10129000089597F99F6780E870E060E008959FEFF8
:1012A00080EC089500240A941616170618060906FD
:1012B000089500240A9412161306140605060895CC
:1012C000092E0394000C11F4882352F0BB0F40F454
:1012D000BF2B11F460FF04C06F5F7F4F8F4F9F4F94
:1012E000089557FD9058440F551F59F05F3F71F016
:1012F0004795880F97FB991F61F09F3F79F087957D
:101300000895121613061406551FF2CF4695F1DF05
:1013100008C0161617061806991FF1CF8695710595
:10132000610508940895E894BB2766277727CB01C9
:1013300097F908950E94DC09A59F900DB49F900D28
:10134000A49F800D911D112408952F923F924F92DA
:101350005F926F927F928F929F92AF92BF92CF9245
:10136000DF92EF92FF920F931F93CF93DF93CDB74E
:10137000DEB7CA1BDB0B0FB6F894DEBF0FBECDBFC6
:1013800009942A88398848885F846E847D848C8497
:101390009B84AA84B984C884DF80EE80FD800C81A0
:1013A0001B81AA81B981CE0FD11D0FB6F894DEBF83
:1013B0000FBECDBFED010895A29FB001B39FC00144
:1013C000A39F700D811D1124911DB29F700D811D71
:1013D0001124911D08955058BB27AA270E94030A83
:1013E0000C9460090E94520938F00E94590920F0BB
:1013F00039F49F3F19F426F40C944F090EF4E0954C
:10140000E7FB0C944909E92F0E94710958F3BA17B8
:10141000620773078407950720F079F4A6F50C940A
:1014200093090EF4E0950B2EBA2FA02D0B01B901F4
:1014300090010C01CA01A0011124FF27591B99F04A
:10144000593F50F4503E68F11A16F040A22F232F56
:10145000342F4427585FF3CF469537952795A795A6
:10146000F0405395C9F77EF41F16BA0B620B730B4D
:10147000840BBAF09150A1F0FF0FBB1F661F771FBE
:10148000881FC2F70EC0BA0F621F731F841F48F473
:10149000879577956795B795F7959E3F08F0B0CFFC
:1014A0009395880F08F09927EE0F979587950895E3
:1014B0000E946C0A0C9460090E94590958F00E941D
:1014C000520940F029F45F3F29F00C944909511169
:1014D0000C9494090C944F090E94710968F39923A4
:1014E000B1F3552391F3951B550BBB27AA27621720
:1014F0007307840738F09F5F5F4F220F331F441F2D
:10150000AA1FA9F335D00E2E3AF0E0E832D0915060
:101510005040E695001CCAF72BD0FE2F29D0660F4D
:10152000771F881FBB1F261737074807AB07B0E890
:1015300009F0BB0B802DBF01FF2793585F4F3AF096
:101540009E3F510578F00C9449090C9494095F3F33
:10155000E4F3983ED4F3869577956795B795F7951C
:101560009F5FC9F7880F911D9695879597F9089504
:10157000E1E0660F771F881FBB1F621773078407A0
:10158000BA0720F0621B730B840BBA0BEE1F88F7AF
:10159000E09508950E94D10A6894B1110C949409C1
:1015A00008950E94790988F09F5798F0B92F9927DC
:1015B000B751B0F0E1F0660F771F881F991F1AF03E
:1015C000BA95C9F714C0B13091F00E949309B1E007
:1015D00008950C949309672F782F8827B85F39F006
:1015E000B93FCCF3869577956795B395D9F73EF4D7
:1015F00090958095709561957F4F8F4F9F4F08957F
:101600000E94B50808F48FEF08950E94B508880B72
:10161000990B0895A1E21A2EAA1BBB1BFD010DC058
:10162000AA1FBB1FEE1FFF1FA217B307E407F50792
:1016300020F0A21BB30BE40BF50B661F771F881F6E
:10164000991F1A9469F760957095809590959B0104
:10165000AC01BD01CF010895EE0FFF1F0590F4917D
:10166000E02D0994F894FFCF0000A041090000008C
:101670002041000000004001AA00D7008D010801B0
:10168000E600FA006E616E00696E66006F766600B5
:107E0000112484B714BE81FFF0D085E080938100F7
:107E100082E08093C00088E18093C10086E0809377
:107E2000C20080E18093C4008EE0C9D0259A86E02C
:107E300020E33CEF91E0309385002093840096BBD3
:107E4000B09BFECF1D9AA8958150A9F7CC24DD24C4
:107E500088248394B5E0AB2EA1E19A2EF3E0BF2EE7
:107E6000A2D0813461F49FD0082FAFD0023811F036
:107E7000013811F484E001C083E08DD089C08234E0
:107E800011F484E103C0853419F485E0A6D080C0E4
:107E9000853579F488D0E82EFF2485D0082F10E0AE
:107EA000102F00270E291F29000F111F8ED06801E7
:107EB0006FC0863521F484E090D080E0DECF843638
:107EC00009F040C070D06FD0082F6DD080E0C81688
:107ED00080E7D80618F4F601B7BEE895C0E0D1E017
:107EE00062D089930C17E1F7F0E0CF16F0E7DF06D8
:107EF00018F0F601B7BEE89568D007B600FCFDCFD4
:107F0000A601A0E0B1E02C9130E011968C91119780
:107F100090E0982F8827822B932B1296FA010C0160
:107F200087BEE89511244E5F5F4FF1E0A038BF0790
:107F300051F7F601A7BEE89507B600FCFDCF97BE46
:107F4000E89526C08437B1F42ED02DD0F82E2BD052
:107F50003CD0F601EF2C8F010F5F1F4F84911BD097
:107F6000EA94F801C1F70894C11CD11CFA94CF0C13
:107F7000D11C0EC0853739F428D08EE10CD085E9AC
:107F80000AD08FE07ACF813511F488E018D01DD067
:107F900080E101D065CF982F8091C00085FFFCCF94
:107FA0009093C60008958091C00087FFFCCF809118
:107FB000C00084FD01C0A8958091C6000895E0E648
:107FC000F0E098E1908380830895EDDF803219F02E
:107FD00088E0F5DFFFCF84E1DECF1F93182FE3DFCA
:107FE0001150E9F7F2DF1F91089580E0E8DFEE27F6
:047FF000FF270994CA
:027FFE00040479
:00000001FF
